{
  "contractName": "cert",
  "abi": [
    {
      "inputs": [],
      "stateMutability": "nonpayable",
      "type": "constructor"
    },
    {
      "inputs": [
        {
          "internalType": "address",
          "name": "instad",
          "type": "address"
        },
        {
          "internalType": "string",
          "name": "_name",
          "type": "string"
        },
        {
          "internalType": "string",
          "name": "_acr",
          "type": "string"
        },
        {
          "internalType": "string",
          "name": "_link",
          "type": "string"
        },
        {
          "internalType": "string[]",
          "name": "_course",
          "type": "string[]"
        }
      ],
      "name": "addInstitute",
      "outputs": [],
      "stateMutability": "nonpayable",
      "type": "function"
    },
    {
      "inputs": [
        {
          "internalType": "address",
          "name": "instad",
          "type": "address"
        }
      ],
      "name": "viewInstitute",
      "outputs": [
        {
          "components": [
            {
              "internalType": "string",
              "name": "name",
              "type": "string"
            },
            {
              "internalType": "string",
              "name": "acr",
              "type": "string"
            },
            {
              "internalType": "string",
              "name": "link",
              "type": "string"
            },
            {
              "internalType": "string[]",
              "name": "course",
              "type": "string[]"
            },
            {
              "internalType": "bool",
              "name": "del",
              "type": "bool"
            }
          ],
          "internalType": "struct cert.institute",
          "name": "i",
          "type": "tuple"
        }
      ],
      "stateMutability": "view",
      "type": "function",
      "constant": true
    },
    {
      "inputs": [
        {
          "internalType": "address",
          "name": "instad",
          "type": "address"
        },
        {
          "internalType": "string",
          "name": "_name",
          "type": "string"
        },
        {
          "internalType": "string",
          "name": "_acr",
          "type": "string"
        },
        {
          "internalType": "string",
          "name": "_link",
          "type": "string"
        },
        {
          "internalType": "string[]",
          "name": "_course",
          "type": "string[]"
        }
      ],
      "name": "updateInstitute",
      "outputs": [],
      "stateMutability": "nonpayable",
      "type": "function"
    },
    {
      "inputs": [
        {
          "internalType": "address",
          "name": "instad",
          "type": "address"
        }
      ],
      "name": "deleteInstitute",
      "outputs": [],
      "stateMutability": "nonpayable",
      "type": "function"
    },
    {
      "inputs": [],
      "name": "viewAllInstitutes",
      "outputs": [
        {
          "components": [
            {
              "internalType": "string",
              "name": "name",
              "type": "string"
            },
            {
              "internalType": "string",
              "name": "acr",
              "type": "string"
            },
            {
              "internalType": "string",
              "name": "link",
              "type": "string"
            },
            {
              "internalType": "string[]",
              "name": "course",
              "type": "string[]"
            },
            {
              "internalType": "bool",
              "name": "del",
              "type": "bool"
            }
          ],
          "internalType": "struct cert.institute[]",
          "name": "",
          "type": "tuple[]"
        }
      ],
      "stateMutability": "view",
      "type": "function",
      "constant": true
    },
    {
      "inputs": [
        {
          "internalType": "address",
          "name": "studad",
          "type": "address"
        },
        {
          "internalType": "string",
          "name": "_name",
          "type": "string"
        }
      ],
      "name": "addStudent",
      "outputs": [],
      "stateMutability": "nonpayable",
      "type": "function"
    },
    {
      "inputs": [
        {
          "internalType": "address",
          "name": "certad",
          "type": "address"
        },
        {
          "internalType": "address",
          "name": "instad",
          "type": "address"
        },
        {
          "internalType": "address",
          "name": "studad",
          "type": "address"
        },
        {
          "internalType": "string",
          "name": "_course",
          "type": "string"
        },
        {
          "internalType": "int256",
          "name": "dur",
          "type": "int256"
        }
      ],
      "name": "issueCertificate",
      "outputs": [],
      "stateMutability": "nonpayable",
      "type": "function"
    },
    {
      "inputs": [
        {
          "internalType": "address",
          "name": "certad",
          "type": "address"
        }
      ],
      "name": "revCertificate",
      "outputs": [],
      "stateMutability": "nonpayable",
      "type": "function"
    },
    {
      "inputs": [
        {
          "internalType": "address",
          "name": "certad",
          "type": "address"
        }
      ],
      "name": "viewCertificate",
      "outputs": [
        {
          "components": [
            {
              "internalType": "address",
              "name": "stud",
              "type": "address"
            },
            {
              "internalType": "address",
              "name": "inst",
              "type": "address"
            },
            {
              "internalType": "string",
              "name": "course",
              "type": "string"
            },
            {
              "internalType": "int256",
              "name": "duration",
              "type": "int256"
            },
            {
              "internalType": "bool",
              "name": "del",
              "type": "bool"
            }
          ],
          "internalType": "struct cert.certificate",
          "name": "",
          "type": "tuple"
        }
      ],
      "stateMutability": "view",
      "type": "function",
      "constant": true
    },
    {
      "inputs": [
        {
          "internalType": "address",
          "name": "studad",
          "type": "address"
        }
      ],
      "name": "viewStudCert",
      "outputs": [
        {
          "components": [
            {
              "internalType": "address",
              "name": "stud",
              "type": "address"
            },
            {
              "internalType": "address",
              "name": "inst",
              "type": "address"
            },
            {
              "internalType": "string",
              "name": "course",
              "type": "string"
            },
            {
              "internalType": "int256",
              "name": "duration",
              "type": "int256"
            },
            {
              "internalType": "bool",
              "name": "del",
              "type": "bool"
            }
          ],
          "internalType": "struct cert.certificate[]",
          "name": "",
          "type": "tuple[]"
        }
      ],
      "stateMutability": "view",
      "type": "function",
      "constant": true
    }
  ],
  "bytecode": "0x60806040526000600355600060065534801561001a57600080fd5b50336000806101000a81548173ffffffffffffffffffffffffffffffffffffffff021916908373ffffffffffffffffffffffffffffffffffffffff160217905550612c788061006a6000396000f3fe608060405234801561001057600080fd5b506004361061009e5760003560e01c8063a57d25b911610066578063a57d25b914610159578063af23ab4014610189578063d94ac885146101a5578063e0d37926146101c1578063e6feee6a146101dd5761009e565b80631d0a7207146100a35780634077ea9c146100bf5780635e8b8091146100dd57806364dbbaa2146100f95780638f8b501c14610129575b600080fd5b6100bd60048036038101906100b89190612226565b6101f9565b005b6100c7610489565b6040516100d4919061256f565b60405180910390f35b6100f760048036038101906100f29190612591565b61090b565b005b610113600480360381019061010e91906125ed565b610963565b60405161012091906126ae565b60405180910390f35b610143600480360381019061013e91906125ed565b610b1f565b6040516101509190612808565b60405180910390f35b610173600480360381019061016e91906125ed565b6112c4565b60405161018091906128b5565b60405180910390f35b6101a3600480360381019061019e91906129bd565b61175b565b005b6101bf60048036038101906101ba91906125ed565b611a10565b005b6101db60048036038101906101d691906125ed565b611b89565b005b6101f760048036038101906101f291906129bd565b611c4f565b005b60011515600160008673ffffffffffffffffffffffffffffffffffffffff1673ffffffffffffffffffffffffffffffffffffffff16815260200190815260200160002060040160009054906101000a900460ff16151503156104825760011515600160003373ffffffffffffffffffffffffffffffffffffffff1673ffffffffffffffffffffffffffffffffffffffff16815260200190815260200160002060040160009054906101000a900460ff1615150315610482576040518060a001604052808573ffffffffffffffffffffffffffffffffffffffff1681526020018473ffffffffffffffffffffffffffffffffffffffff16815260200183815260200182815260200160001515815250600760008773ffffffffffffffffffffffffffffffffffffffff1673ffffffffffffffffffffffffffffffffffffffff16815260200190815260200160002060008201518160000160006101000a81548173ffffffffffffffffffffffffffffffffffffffff021916908373ffffffffffffffffffffffffffffffffffffffff16021790555060208201518160010160006101000a81548173ffffffffffffffffffffffffffffffffffffffff021916908373ffffffffffffffffffffffffffffffffffffffff16021790555060408201518160020190805190602001906103f0929190611e22565b506060820151816003015560808201518160040160006101000a81548160ff0219169083151502179055509050506008859080600181540180825580915050600190039060005260206000200160009091909190916101000a81548173ffffffffffffffffffffffffffffffffffffffff021916908373ffffffffffffffffffffffffffffffffffffffff1602179055505b5050505050565b6060600060035467ffffffffffffffff8111156104a9576104a86120c5565b5b6040519080825280602002602001820160405280156104e257816020015b6104cf611ea8565b8152602001906001900390816104c75790505b5090506000805b6002805490508110156109025760001515600160006002848154811061051257610511612aa8565b5b9060005260206000200160009054906101000a900473ffffffffffffffffffffffffffffffffffffffff1673ffffffffffffffffffffffffffffffffffffffff1673ffffffffffffffffffffffffffffffffffffffff16815260200190815260200160002060040160009054906101000a900460ff161515036108ef5760016000600283815481106105a7576105a6612aa8565b5b9060005260206000200160009054906101000a900473ffffffffffffffffffffffffffffffffffffffff1673ffffffffffffffffffffffffffffffffffffffff1673ffffffffffffffffffffffffffffffffffffffff1681526020019081526020016000206040518060a001604052908160008201805461062790612b06565b80601f016020809104026020016040519081016040528092919081815260200182805461065390612b06565b80156106a05780601f10610675576101008083540402835291602001916106a0565b820191906000526020600020905b81548152906001019060200180831161068357829003601f168201915b505050505081526020016001820180546106b990612b06565b80601f01602080910402602001604051908101604052809291908181526020018280546106e590612b06565b80156107325780601f1061070757610100808354040283529160200191610732565b820191906000526020600020905b81548152906001019060200180831161071557829003601f168201915b5050505050815260200160028201805461074b90612b06565b80601f016020809104026020016040519081016040528092919081815260200182805461077790612b06565b80156107c45780601f10610799576101008083540402835291602001916107c4565b820191906000526020600020905b8154815290600101906020018083116107a757829003601f168201915b5050505050815260200160038201805480602002602001604051908101604052809291908181526020016000905b8282101561089e57838290600052602060002001805461081190612b06565b80601f016020809104026020016040519081016040528092919081815260200182805461083d90612b06565b801561088a5780601f1061085f5761010080835404028352916020019161088a565b820191906000526020600020905b81548152906001019060200180831161086d57829003601f168201915b5050505050815260200190600101906107f2565b5050505081526020016004820160009054906101000a900460ff1615151515815250508383815181106108d4576108d3612aa8565b5b60200260200101819052506001826108ec9190612b70565b91505b80806108fa90612bc6565b9150506104e9565b50819250505090565b80600460008473ffffffffffffffffffffffffffffffffffffffff1673ffffffffffffffffffffffffffffffffffffffff168152602001908152602001600020908051906020019061095e929190611e22565b505050565b61096b611ed9565b600760008373ffffffffffffffffffffffffffffffffffffffff1673ffffffffffffffffffffffffffffffffffffffff1681526020019081526020016000206040518060a00160405290816000820160009054906101000a900473ffffffffffffffffffffffffffffffffffffffff1673ffffffffffffffffffffffffffffffffffffffff1673ffffffffffffffffffffffffffffffffffffffff1681526020016001820160009054906101000a900473ffffffffffffffffffffffffffffffffffffffff1673ffffffffffffffffffffffffffffffffffffffff1673ffffffffffffffffffffffffffffffffffffffff168152602001600282018054610a7190612b06565b80601f0160208091040260200160405190810160405280929190818152602001828054610a9d90612b06565b8015610aea5780601f10610abf57610100808354040283529160200191610aea565b820191906000526020600020905b815481529060010190602001808311610acd57829003601f168201915b50505050508152602001600382015481526020016004820160009054906101000a900460ff1615151515815250509050919050565b60606000805b600880549050811015610dbe57600015156007600060088481548110610b4e57610b4d612aa8565b5b9060005260206000200160009054906101000a900473ffffffffffffffffffffffffffffffffffffffff1673ffffffffffffffffffffffffffffffffffffffff1673ffffffffffffffffffffffffffffffffffffffff16815260200190815260200160002060040160009054906101000a900460ff16151503610dab578373ffffffffffffffffffffffffffffffffffffffff166007600060088481548110610bfa57610bf9612aa8565b5b9060005260206000200160009054906101000a900473ffffffffffffffffffffffffffffffffffffffff1673ffffffffffffffffffffffffffffffffffffffff1673ffffffffffffffffffffffffffffffffffffffff16815260200190815260200160002060000160009054906101000a900473ffffffffffffffffffffffffffffffffffffffff1673ffffffffffffffffffffffffffffffffffffffff1603610daa5760001515600160006007600060088681548110610cbe57610cbd612aa8565b5b9060005260206000200160009054906101000a900473ffffffffffffffffffffffffffffffffffffffff1673ffffffffffffffffffffffffffffffffffffffff1673ffffffffffffffffffffffffffffffffffffffff16815260200190815260200160002060010160009054906101000a900473ffffffffffffffffffffffffffffffffffffffff1673ffffffffffffffffffffffffffffffffffffffff1673ffffffffffffffffffffffffffffffffffffffff16815260200190815260200160002060040160009054906101000a900460ff16151503610da957600182610da69190612b70565b91505b5b5b8080610db690612bc6565b915050610b25565b5060008167ffffffffffffffff811115610ddb57610dda6120c5565b5b604051908082528060200260200182016040528015610e1457816020015b610e01611ed9565b815260200190600190039081610df95790505b5090506000805b838110156112b857600015156007600060088481548110610e3f57610e3e612aa8565b5b9060005260206000200160009054906101000a900473ffffffffffffffffffffffffffffffffffffffff1673ffffffffffffffffffffffffffffffffffffffff1673ffffffffffffffffffffffffffffffffffffffff16815260200190815260200160002060040160009054906101000a900460ff161515036112a5578573ffffffffffffffffffffffffffffffffffffffff166007600060088481548110610eeb57610eea612aa8565b5b9060005260206000200160009054906101000a900473ffffffffffffffffffffffffffffffffffffffff1673ffffffffffffffffffffffffffffffffffffffff1673ffffffffffffffffffffffffffffffffffffffff16815260200190815260200160002060000160009054906101000a900473ffffffffffffffffffffffffffffffffffffffff1673ffffffffffffffffffffffffffffffffffffffff16036112a45760001515600160006007600060088681548110610faf57610fae612aa8565b5b9060005260206000200160009054906101000a900473ffffffffffffffffffffffffffffffffffffffff1673ffffffffffffffffffffffffffffffffffffffff1673ffffffffffffffffffffffffffffffffffffffff16815260200190815260200160002060010160009054906101000a900473ffffffffffffffffffffffffffffffffffffffff1673ffffffffffffffffffffffffffffffffffffffff1673ffffffffffffffffffffffffffffffffffffffff16815260200190815260200160002060040160009054906101000a900460ff161515036112a35760076000600883815481106110a2576110a1612aa8565b5b9060005260206000200160009054906101000a900473ffffffffffffffffffffffffffffffffffffffff1673ffffffffffffffffffffffffffffffffffffffff1673ffffffffffffffffffffffffffffffffffffffff1681526020019081526020016000206040518060a00160405290816000820160009054906101000a900473ffffffffffffffffffffffffffffffffffffffff1673ffffffffffffffffffffffffffffffffffffffff1673ffffffffffffffffffffffffffffffffffffffff1681526020016001820160009054906101000a900473ffffffffffffffffffffffffffffffffffffffff1673ffffffffffffffffffffffffffffffffffffffff1673ffffffffffffffffffffffffffffffffffffffff1681526020016002820180546111ce90612b06565b80601f01602080910402602001604051908101604052809291908181526020018280546111fa90612b06565b80156112475780601f1061121c57610100808354040283529160200191611247565b820191906000526020600020905b81548152906001019060200180831161122a57829003601f168201915b50505050508152602001600382015481526020016004820160009054906101000a900460ff16151515158152505083838151811061128857611287612aa8565b5b60200260200101819052506001826112a09190612b70565b91505b5b5b80806112b090612bc6565b915050610e1b565b50819350505050919050565b6112cc611ea8565b606060006040518060a001604052806040518060400160405280600781526020017f696e76616c69640000000000000000000000000000000000000000000000000081525081526020016040518060400160405280600381526020017f696e76000000000000000000000000000000000000000000000000000000000081525081526020016040518060400160405280600481526020017f6e756c6c00000000000000000000000000000000000000000000000000000000815250815260200183815260200160001515815250905060008054906101000a900473ffffffffffffffffffffffffffffffffffffffff1673ffffffffffffffffffffffffffffffffffffffff163373ffffffffffffffffffffffffffffffffffffffff16146113f8578092505050611756565b60011515600160008673ffffffffffffffffffffffffffffffffffffffff1673ffffffffffffffffffffffffffffffffffffffff16815260200190815260200160002060040160009054906101000a900460ff1615150361145d578092505050611756565b600160008573ffffffffffffffffffffffffffffffffffffffff1673ffffffffffffffffffffffffffffffffffffffff1681526020019081526020016000206040518060a00160405290816000820180546114b790612b06565b80601f01602080910402602001604051908101604052809291908181526020018280546114e390612b06565b80156115305780601f1061150557610100808354040283529160200191611530565b820191906000526020600020905b81548152906001019060200180831161151357829003601f168201915b5050505050815260200160018201805461154990612b06565b80601f016020809104026020016040519081016040528092919081815260200182805461157590612b06565b80156115c25780601f10611597576101008083540402835291602001916115c2565b820191906000526020600020905b8154815290600101906020018083116115a557829003601f168201915b505050505081526020016002820180546115db90612b06565b80601f016020809104026020016040519081016040528092919081815260200182805461160790612b06565b80156116545780601f1061162957610100808354040283529160200191611654565b820191906000526020600020905b81548152906001019060200180831161163757829003601f168201915b5050505050815260200160038201805480602002602001604051908101604052809291908181526020016000905b8282101561172e5783829060005260206000200180546116a190612b06565b80601f01602080910402602001604051908101604052809291908181526020018280546116cd90612b06565b801561171a5780601f106116ef5761010080835404028352916020019161171a565b820191906000526020600020905b8154815290600101906020018083116116fd57829003601f168201915b505050505081526020019060010190611682565b5050505081526020016004820160009054906101000a900460ff161515151581525050925050505b919050565b60011515600160003373ffffffffffffffffffffffffffffffffffffffff1673ffffffffffffffffffffffffffffffffffffffff16815260200190815260200160002060040160009054906101000a900460ff1615150315611a095783600160008773ffffffffffffffffffffffffffffffffffffffff1673ffffffffffffffffffffffffffffffffffffffff168152602001908152602001600020600001908051906020019061180d929190611e22565b5082600160008773ffffffffffffffffffffffffffffffffffffffff1673ffffffffffffffffffffffffffffffffffffffff1681526020019081526020016000206001019080519060200190611864929190611e22565b5081600160008773ffffffffffffffffffffffffffffffffffffffff1673ffffffffffffffffffffffffffffffffffffffff16815260200190815260200160002060020190805190602001906118bb929190611e22565b50600160008673ffffffffffffffffffffffffffffffffffffffff1673ffffffffffffffffffffffffffffffffffffffff1681526020019081526020016000206000808201600061190c9190611f36565b60018201600061191c9190611f36565b60028201600061192c9190611f36565b60038201600061193c9190611f76565b6004820160006101000a81549060ff0219169055505060005b8151811015611a0757600160008773ffffffffffffffffffffffffffffffffffffffff1673ffffffffffffffffffffffffffffffffffffffff1681526020019081526020016000206003018282815181106119b3576119b2612aa8565b5b60200260200101519080600181540180825580915050600190039060005260206000200160009091909190915090805190602001906119f3929190611e22565b5080806119ff90612bc6565b915050611955565b505b5050505050565b60011515600160003373ffffffffffffffffffffffffffffffffffffffff1673ffffffffffffffffffffffffffffffffffffffff16815260200190815260200160002060040160009054906101000a900460ff1615150315611b86576001151560016000600760008573ffffffffffffffffffffffffffffffffffffffff1673ffffffffffffffffffffffffffffffffffffffff16815260200190815260200160002060010160009054906101000a900473ffffffffffffffffffffffffffffffffffffffff1673ffffffffffffffffffffffffffffffffffffffff1673ffffffffffffffffffffffffffffffffffffffff16815260200190815260200160002060040160009054906101000a900460ff1615150315611b86576001600760008373ffffffffffffffffffffffffffffffffffffffff1673ffffffffffffffffffffffffffffffffffffffff16815260200190815260200160002060040160006101000a81548160ff0219169083151502179055505b50565b60008054906101000a900473ffffffffffffffffffffffffffffffffffffffff1673ffffffffffffffffffffffffffffffffffffffff163373ffffffffffffffffffffffffffffffffffffffff1603611c4c5760018060008373ffffffffffffffffffffffffffffffffffffffff1673ffffffffffffffffffffffffffffffffffffffff16815260200190815260200160002060040160006101000a81548160ff0219169083151502179055506001600354611c459190612c0e565b6003819055505b50565b60008054906101000a900473ffffffffffffffffffffffffffffffffffffffff1673ffffffffffffffffffffffffffffffffffffffff163373ffffffffffffffffffffffffffffffffffffffff1603611e1b576040518060a0016040528085815260200184815260200183815260200182815260200160001515815250600160008773ffffffffffffffffffffffffffffffffffffffff1673ffffffffffffffffffffffffffffffffffffffff1681526020019081526020016000206000820151816000019080519060200190611d27929190611e22565b506020820151816001019080519060200190611d44929190611e22565b506040820151816002019080519060200190611d61929190611e22565b506060820151816003019080519060200190611d7e929190611f97565b5060808201518160040160006101000a81548160ff0219169083151502179055509050506002859080600181540180825580915050600190039060005260206000200160009091909190916101000a81548173ffffffffffffffffffffffffffffffffffffffff021916908373ffffffffffffffffffffffffffffffffffffffff1602179055506001600354611e149190612b70565b6003819055505b5050505050565b828054611e2e90612b06565b90600052602060002090601f016020900481019282611e505760008555611e97565b82601f10611e6957805160ff1916838001178555611e97565b82800160010185558215611e97579182015b82811115611e96578251825591602001919060010190611e7b565b5b509050611ea49190611ff7565b5090565b6040518060a00160405280606081526020016060815260200160608152602001606081526020016000151581525090565b6040518060a00160405280600073ffffffffffffffffffffffffffffffffffffffff168152602001600073ffffffffffffffffffffffffffffffffffffffff16815260200160608152602001600081526020016000151581525090565b508054611f4290612b06565b6000825580601f10611f545750611f73565b601f016020900490600052602060002090810190611f729190611ff7565b5b50565b5080546000825590600052602060002090810190611f949190612014565b50565b828054828255906000526020600020908101928215611fe6579160200282015b82811115611fe5578251829080519060200190611fd5929190611e22565b5091602001919060010190611fb7565b5b509050611ff39190612014565b5090565b5b80821115612010576000816000905550600101611ff8565b5090565b5b80821115612034576000818161202b9190611f36565b50600101612015565b5090565b6000604051905090565b600080fd5b600080fd5b600073ffffffffffffffffffffffffffffffffffffffff82169050919050565b60006120778261204c565b9050919050565b6120878161206c565b811461209257600080fd5b50565b6000813590506120a48161207e565b92915050565b600080fd5b600080fd5b6000601f19601f8301169050919050565b7f4e487b7100000000000000000000000000000000000000000000000000000000600052604160045260246000fd5b6120fd826120b4565b810181811067ffffffffffffffff8211171561211c5761211b6120c5565b5b80604052505050565b600061212f612038565b905061213b82826120f4565b919050565b600067ffffffffffffffff82111561215b5761215a6120c5565b5b612164826120b4565b9050602081019050919050565b82818337600083830152505050565b600061219361218e84612140565b612125565b9050828152602081018484840111156121af576121ae6120af565b5b6121ba848285612171565b509392505050565b600082601f8301126121d7576121d66120aa565b5b81356121e7848260208601612180565b91505092915050565b6000819050919050565b612203816121f0565b811461220e57600080fd5b50565b600081359050612220816121fa565b92915050565b600080600080600060a0868803121561224257612241612042565b5b600061225088828901612095565b955050602061226188828901612095565b945050604061227288828901612095565b935050606086013567ffffffffffffffff81111561229357612292612047565b5b61229f888289016121c2565b92505060806122b088828901612211565b9150509295509295909350565b600081519050919050565b600082825260208201905092915050565b6000819050602082019050919050565b600081519050919050565b600082825260208201905092915050565b60005b83811015612323578082015181840152602081019050612308565b83811115612332576000848401525b50505050565b6000612343826122e9565b61234d81856122f4565b935061235d818560208601612305565b612366816120b4565b840191505092915050565b600081519050919050565b600082825260208201905092915050565b6000819050602082019050919050565b60006123a98383612338565b905092915050565b6000602082019050919050565b60006123c982612371565b6123d3818561237c565b9350836020820285016123e58561238d565b8060005b858110156124215784840389528151612402858261239d565b945061240d836123b1565b925060208a019950506001810190506123e9565b50829750879550505050505092915050565b60008115159050919050565b61244881612433565b82525050565b600060a083016000830151848203600086015261246b8282612338565b915050602083015184820360208601526124858282612338565b9150506040830151848203604086015261249f8282612338565b915050606083015184820360608601526124b982826123be565b91505060808301516124ce608086018261243f565b508091505092915050565b60006124e5838361244e565b905092915050565b6000602082019050919050565b6000612505826122bd565b61250f81856122c8565b935083602082028501612521856122d9565b8060005b8581101561255d578484038952815161253e85826124d9565b9450612549836124ed565b925060208a01995050600181019050612525565b50829750879550505050505092915050565b6000602082019050818103600083015261258981846124fa565b905092915050565b600080604083850312156125a8576125a7612042565b5b60006125b685828601612095565b925050602083013567ffffffffffffffff8111156125d7576125d6612047565b5b6125e3858286016121c2565b9150509250929050565b60006020828403121561260357612602612042565b5b600061261184828501612095565b91505092915050565b6126238161206c565b82525050565b612632816121f0565b82525050565b600060a083016000830151612650600086018261261a565b506020830151612663602086018261261a565b506040830151848203604086015261267b8282612338565b91505060608301516126906060860182612629565b5060808301516126a3608086018261243f565b508091505092915050565b600060208201905081810360008301526126c88184612638565b905092915050565b600081519050919050565b600082825260208201905092915050565b6000819050602082019050919050565b600060a083016000830151612714600086018261261a565b506020830151612727602086018261261a565b506040830151848203604086015261273f8282612338565b91505060608301516127546060860182612629565b506080830151612767608086018261243f565b508091505092915050565b600061277e83836126fc565b905092915050565b6000602082019050919050565b600061279e826126d0565b6127a881856126db565b9350836020820285016127ba856126ec565b8060005b858110156127f657848403895281516127d78582612772565b94506127e283612786565b925060208a019950506001810190506127be565b50829750879550505050505092915050565b600060208201905081810360008301526128228184612793565b905092915050565b600060a08301600083015184820360008601526128478282612338565b915050602083015184820360208601526128618282612338565b9150506040830151848203604086015261287b8282612338565b9150506060830151848203606086015261289582826123be565b91505060808301516128aa608086018261243f565b508091505092915050565b600060208201905081810360008301526128cf818461282a565b905092915050565b600067ffffffffffffffff8211156128f2576128f16120c5565b5b602082029050602081019050919050565b600080fd5b600061291b612916846128d7565b612125565b9050808382526020820190506020840283018581111561293e5761293d612903565b5b835b8181101561298557803567ffffffffffffffff811115612963576129626120aa565b5b80860161297089826121c2565b85526020850194505050602081019050612940565b5050509392505050565b600082601f8301126129a4576129a36120aa565b5b81356129b4848260208601612908565b91505092915050565b600080600080600060a086880312156129d9576129d8612042565b5b60006129e788828901612095565b955050602086013567ffffffffffffffff811115612a0857612a07612047565b5b612a14888289016121c2565b945050604086013567ffffffffffffffff811115612a3557612a34612047565b5b612a41888289016121c2565b935050606086013567ffffffffffffffff811115612a6257612a61612047565b5b612a6e888289016121c2565b925050608086013567ffffffffffffffff811115612a8f57612a8e612047565b5b612a9b8882890161298f565b9150509295509295909350565b7f4e487b7100000000000000000000000000000000000000000000000000000000600052603260045260246000fd5b7f4e487b7100000000000000000000000000000000000000000000000000000000600052602260045260246000fd5b60006002820490506001821680612b1e57607f821691505b602082108103612b3157612b30612ad7565b5b50919050565b6000819050919050565b7f4e487b7100000000000000000000000000000000000000000000000000000000600052601160045260246000fd5b6000612b7b82612b37565b9150612b8683612b37565b9250827fffffffffffffffffffffffffffffffffffffffffffffffffffffffffffffffff03821115612bbb57612bba612b41565b5b828201905092915050565b6000612bd182612b37565b91507fffffffffffffffffffffffffffffffffffffffffffffffffffffffffffffffff8203612c0357612c02612b41565b5b600182019050919050565b6000612c1982612b37565b9150612c2483612b37565b925082821015612c3757612c36612b41565b5b82820390509291505056fea2646970667358221220e2d87cc4bc1ac1462b41e5b2f3be9d046af2cdca3eb17aaf54245dee5bd7a36864736f6c634300080d0033",
  "immutableReferences": {},
  "source": "pragma solidity >=0.7.0 <0.9.0;\r\n\r\ncontract cert{\r\n\r\n    address admin;\r\n\r\n    constructor() public {\r\n        admin=msg.sender;\r\n    }\r\n\r\n    struct institute {\r\n        string name;\r\n        string acr;\r\n        string link;\r\n        string[] course;\r\n        bool del;\r\n    }\r\n\r\n    mapping(address=>institute) institutes;\r\n    address[] InstAddressList;\r\n    uint instcnt = 0;\r\n\r\n    function addInstitute(address instad,string memory _name,string memory _acr,string memory _link,string[] memory _course) public{\r\n        if(msg.sender != admin)\r\n            return ;\r\n\r\n        institutes[instad] = institute(_name,_acr,_link,_course,false);\r\n        InstAddressList.push(instad);\r\n        instcnt = instcnt + 1;\r\n    }\r\n\r\n    function viewInstitute(address instad) public view returns (institute memory i)\r\n    {\r\n        string[] memory es;\r\n        institute memory t = institute(\"invalid\",\"inv\",\"null\",es,false);\r\n\r\n        if(msg.sender != admin)\r\n            return t;\r\n        \r\n        if(institutes[instad].del == true)\r\n            return t;\r\n\r\n        return (institutes[instad]);\r\n    }\r\n\r\n    function updateInstitute(address instad,string memory _name,string memory _acr,string memory _link,string[] memory _course) public {\r\n        if(institutes[msg.sender].del == true)\r\n            return;\r\n\r\n        institutes[instad].name = _name;\r\n        institutes[instad].acr = _acr;\r\n        institutes[instad].link = _link;\r\n\r\n        delete institutes[instad];\r\n        for(uint i=0;i<_course.length;i++)\r\n            institutes[instad].course.push(_course[i]);   \r\n    } \r\n    \r\n    function deleteInstitute(address instad) public {\r\n        if(msg.sender != admin)\r\n            return;\r\n        institutes[instad].del = true;\r\n        instcnt = instcnt - 1;\r\n    }\r\n\r\n    function viewAllInstitutes() public view returns (institute[] memory)  {\r\n        \r\n        institute[] memory ans = new institute[](instcnt);\r\n        // if(msg.sender != admin)\r\n        //     return ans;\r\n        uint j = 0;\r\n        for(uint i=0;i<InstAddressList.length;i++)\r\n        {\r\n            if(institutes[InstAddressList[i]].del == false)\r\n            {\r\n                ans[j] = institutes[InstAddressList[i]];\r\n                j = j  +1 ;\r\n            }\r\n        }\r\n        return ans;\r\n    }\r\n\r\n    mapping(address=>string) students;\r\n    address[] StudAddressList;\r\n    uint studcnt = 0;    \r\n\r\n    function addStudent(address studad,string memory _name) public{\r\n        students[studad] = _name;\r\n    }\r\n\r\n    struct certificate{\r\n        address stud;\r\n        address inst;\r\n        string course;\r\n        int duration;  \r\n        bool del; \r\n    }   \r\n\r\n    mapping(address=>certificate) certificates;\r\n    address[] certAddressList;\r\n\r\n    function issueCertificate(address certad,address instad,address studad,string memory _course,int dur) public\r\n    {\r\n        if(institutes[instad].del == true)\r\n            return;\r\n        if(institutes[msg.sender].del == true)\r\n            return;\r\n        certificates[certad] = certificate(instad,studad,_course,dur,false);\r\n        certAddressList.push(certad);\r\n    }\r\n\r\n    function revCertificate(address certad) public\r\n    {\r\n        if(institutes[msg.sender].del == true)\r\n            return;\r\n        if(institutes[certificates[certad].inst].del == true)\r\n            return;\r\n\r\n        certificates[certad].del = true;\r\n    }\r\n\r\n    function viewCertificate(address certad) public view returns (certificate memory){\r\n        return certificates[certad];\r\n    }\r\n    function viewStudCert(address studad) public view returns (certificate[] memory){\r\n        uint cnt = 0;\r\n        for(uint i=0;i<certAddressList.length;i++)\r\n        {\r\n            if(certificates[certAddressList[i]].del  == false)\r\n            {\r\n                if(certificates[certAddressList[i]].stud == studad)\r\n                {\r\n                    if(institutes[certificates[certAddressList[i]].inst].del == false)\r\n                        cnt = cnt + 1;\r\n                }\r\n            }\r\n        }\r\n\r\n        certificate[] memory ans = new certificate[](cnt);\r\n        uint j = 0;\r\n        for(uint i=0;i<cnt;i++)\r\n        {\r\n            if(certificates[certAddressList[i]].del  == false)\r\n            {\r\n                if(certificates[certAddressList[i]].stud == studad)\r\n                {\r\n                    if(institutes[certificates[certAddressList[i]].inst].del == false)\r\n                    {\r\n                            ans[j] = certificates[certAddressList[i]];\r\n                            j = j + 1;\r\n                    }\r\n                }\r\n            }         \r\n        }\r\n        return ans;\r\n    }\r\n\r\n}   ",
  "sourcePath": "C:\\Users\\mridu\\Desktop\\a\\Certificate-generator\\contracts\\cert.sol",
  "compiler": {
    "name": "solc",
    "version": "0.8.13+commit.abaa5c0e.Emscripten.clang"
  },
  "schemaVersion": "3.4.7",
  "updatedAt": "2022-05-03T06:56:03.162Z",
  "networkType": "ethereum",
  "devdoc": {
    "kind": "dev",
    "methods": {},
    "version": 1
  },
  "userdoc": {
    "kind": "user",
    "methods": {},
    "version": 1
  }
}