{
  "contractName": "validatecert",
  "abi": [
    {
      "inputs": [],
      "stateMutability": "nonpayable",
      "type": "constructor"
    },
    {
      "anonymous": false,
      "inputs": [
        {
          "indexed": false,
          "internalType": "address",
          "name": "certificate_id",
          "type": "address"
        }
      ],
      "name": "certificateid",
      "type": "event"
    },
    {
      "anonymous": false,
      "inputs": [
        {
          "indexed": false,
          "internalType": "uint256",
          "name": "clgid",
          "type": "uint256"
        }
      ],
      "name": "id",
      "type": "event"
    },
    {
      "inputs": [
        {
          "internalType": "address",
          "name": "add",
          "type": "address"
        },
        {
          "internalType": "string",
          "name": "name",
          "type": "string"
        }
      ],
      "name": "addCollege",
      "outputs": [
        {
          "internalType": "uint256",
          "name": "",
          "type": "uint256"
        }
      ],
      "stateMutability": "nonpayable",
      "type": "function"
    },
    {
      "inputs": [
        {
          "internalType": "address",
          "name": "col",
          "type": "address"
        }
      ],
      "name": "checkcoll",
      "outputs": [
        {
          "internalType": "string",
          "name": "",
          "type": "string"
        },
        {
          "internalType": "uint256",
          "name": "",
          "type": "uint256"
        }
      ],
      "stateMutability": "view",
      "type": "function",
      "constant": true
    },
    {
      "inputs": [
        {
          "internalType": "address",
          "name": "inst",
          "type": "address"
        },
        {
          "internalType": "string",
          "name": "name",
          "type": "string"
        },
        {
          "internalType": "string",
          "name": "course",
          "type": "string"
        },
        {
          "internalType": "uint256",
          "name": "duration",
          "type": "uint256"
        },
        {
          "internalType": "address",
          "name": "ceid",
          "type": "address"
        }
      ],
      "name": "addcert",
      "outputs": [],
      "stateMutability": "nonpayable",
      "type": "function"
    },
    {
      "inputs": [
        {
          "internalType": "address",
          "name": "certid",
          "type": "address"
        }
      ],
      "name": "viewcert",
      "outputs": [
        {
          "internalType": "string",
          "name": "name",
          "type": "string"
        },
        {
          "internalType": "string",
          "name": "course",
          "type": "string"
        },
        {
          "internalType": "uint256",
          "name": "dur",
          "type": "uint256"
        }
      ],
      "stateMutability": "view",
      "type": "function",
      "constant": true
    }
  ],
  "bytecode": "0x60806040526000600555600060065534801561001a57600080fd5b5033600460006101000a81548173ffffffffffffffffffffffffffffffffffffffff021916908373ffffffffffffffffffffffffffffffffffffffff160217905550610fa88061006b6000396000f3fe608060405234801561001057600080fd5b506004361061004c5760003560e01c806393dcc0e71461005157806398ee0ed81461006d578063c3da3a901461009e578063c6585b82146100d0575b600080fd5b61006b60048036038101906100669190610bcc565b610100565b005b61008760048036038101906100829190610c7f565b610333565b604051610095929190610d43565b60405180910390f35b6100b860048036038101906100b39190610c7f565b610451565b6040516100c793929190610d73565b60405180910390f35b6100ea60048036038101906100e59190610db8565b6106e2565b6040516100f79190610e14565b60405180910390f35b60001515600160008773ffffffffffffffffffffffffffffffffffffffff1673ffffffffffffffffffffffffffffffffffffffff16815260200190815260200160002060009054906101000a900460ff161515031561032c576040518060600160405280858152602001848152602001838152506000808373ffffffffffffffffffffffffffffffffffffffff1673ffffffffffffffffffffffffffffffffffffffff16815260200190815260200160002060008201518160000190805190602001906101ce9291906108b1565b5060208201518160010190805190602001906101eb9291906108b1565b5060408201518160020155905050600260008673ffffffffffffffffffffffffffffffffffffffff1673ffffffffffffffffffffffffffffffffffffffff168152602001908152602001600020600201819080600181540180825580915050600190039060005260206000200160009091909190916101000a81548173ffffffffffffffffffffffffffffffffffffffff021916908373ffffffffffffffffffffffffffffffffffffffff1602179055506001600360008373ffffffffffffffffffffffffffffffffffffffff1673ffffffffffffffffffffffffffffffffffffffff16815260200190815260200160002060006101000a81548160ff0219169083151502179055507f8097cbacba09050a562c4ca2870b1137c968697aa606be790778471da3603627816040516103239190610e3e565b60405180910390a15b5050505050565b60606000600260008473ffffffffffffffffffffffffffffffffffffffff1673ffffffffffffffffffffffffffffffffffffffff168152602001908152602001600020600001600260008573ffffffffffffffffffffffffffffffffffffffff1673ffffffffffffffffffffffffffffffffffffffff168152602001908152602001600020600101548180546103c890610e88565b80601f01602080910402602001604051908101604052809291908181526020018280546103f490610e88565b80156104415780601f1061041657610100808354040283529160200191610441565b820191906000526020600020905b81548152906001019060200180831161042457829003601f168201915b5050505050915091509150915091565b6060806000806040518060400160405280600781526020017f696e76616c696400000000000000000000000000000000000000000000000000815250905060011515600360008773ffffffffffffffffffffffffffffffffffffffff1673ffffffffffffffffffffffffffffffffffffffff16815260200190815260200160002060009054906101000a900460ff161515146104f75780816000935093509350506106db565b6000808673ffffffffffffffffffffffffffffffffffffffff1673ffffffffffffffffffffffffffffffffffffffff1681526020019081526020016000206000016000808773ffffffffffffffffffffffffffffffffffffffff1673ffffffffffffffffffffffffffffffffffffffff1681526020019081526020016000206001016000808873ffffffffffffffffffffffffffffffffffffffff1673ffffffffffffffffffffffffffffffffffffffff168152602001908152602001600020600201548280546105c790610e88565b80601f01602080910402602001604051908101604052809291908181526020018280546105f390610e88565b80156106405780601f1061061557610100808354040283529160200191610640565b820191906000526020600020905b81548152906001019060200180831161062357829003601f168201915b5050505050925081805461065390610e88565b80601f016020809104026020016040519081016040528092919081815260200182805461067f90610e88565b80156106cc5780601f106106a1576101008083540402835291602001916106cc565b820191906000526020600020905b8154815290600101906020018083116106af57829003601f168201915b50505050509150935093509350505b9193909250565b6000600460009054906101000a900473ffffffffffffffffffffffffffffffffffffffff1673ffffffffffffffffffffffffffffffffffffffff163373ffffffffffffffffffffffffffffffffffffffff161461074257600090506108ab565b60606040518060600160405280848152602001600554815260200182815250600260008673ffffffffffffffffffffffffffffffffffffffff1673ffffffffffffffffffffffffffffffffffffffff16815260200190815260200160002060008201518160000190805190602001906107bc9291906108b1565b506020820151816001015560408201518160020190805190602001906107e3929190610937565b5090505060016005546107f69190610ee8565b60058190555060018060008673ffffffffffffffffffffffffffffffffffffffff1673ffffffffffffffffffffffffffffffffffffffff16815260200190815260200160002060006101000a81548160ff0219169083151502179055507f7d3c40c888bef33c761048f5067ad856f81d4151a364e5a62bf92def0b15ab9160016005546108839190610f3e565b6040516108909190610e14565b60405180910390a160016005546108a79190610f3e565b9150505b92915050565b8280546108bd90610e88565b90600052602060002090601f0160209004810192826108df5760008555610926565b82601f106108f857805160ff1916838001178555610926565b82800160010185558215610926579182015b8281111561092557825182559160200191906001019061090a565b5b50905061093391906109c1565b5090565b8280548282559060005260206000209081019282156109b0579160200282015b828111156109af5782518260006101000a81548173ffffffffffffffffffffffffffffffffffffffff021916908373ffffffffffffffffffffffffffffffffffffffff16021790555091602001919060010190610957565b5b5090506109bd91906109c1565b5090565b5b808211156109da5760008160009055506001016109c2565b5090565b6000604051905090565b600080fd5b600080fd5b600073ffffffffffffffffffffffffffffffffffffffff82169050919050565b6000610a1d826109f2565b9050919050565b610a2d81610a12565b8114610a3857600080fd5b50565b600081359050610a4a81610a24565b92915050565b600080fd5b600080fd5b6000601f19601f8301169050919050565b7f4e487b7100000000000000000000000000000000000000000000000000000000600052604160045260246000fd5b610aa382610a5a565b810181811067ffffffffffffffff82111715610ac257610ac1610a6b565b5b80604052505050565b6000610ad56109de565b9050610ae18282610a9a565b919050565b600067ffffffffffffffff821115610b0157610b00610a6b565b5b610b0a82610a5a565b9050602081019050919050565b82818337600083830152505050565b6000610b39610b3484610ae6565b610acb565b905082815260208101848484011115610b5557610b54610a55565b5b610b60848285610b17565b509392505050565b600082601f830112610b7d57610b7c610a50565b5b8135610b8d848260208601610b26565b91505092915050565b6000819050919050565b610ba981610b96565b8114610bb457600080fd5b50565b600081359050610bc681610ba0565b92915050565b600080600080600060a08688031215610be857610be76109e8565b5b6000610bf688828901610a3b565b955050602086013567ffffffffffffffff811115610c1757610c166109ed565b5b610c2388828901610b68565b945050604086013567ffffffffffffffff811115610c4457610c436109ed565b5b610c5088828901610b68565b9350506060610c6188828901610bb7565b9250506080610c7288828901610a3b565b9150509295509295909350565b600060208284031215610c9557610c946109e8565b5b6000610ca384828501610a3b565b91505092915050565b600081519050919050565b600082825260208201905092915050565b60005b83811015610ce6578082015181840152602081019050610ccb565b83811115610cf5576000848401525b50505050565b6000610d0682610cac565b610d108185610cb7565b9350610d20818560208601610cc8565b610d2981610a5a565b840191505092915050565b610d3d81610b96565b82525050565b60006040820190508181036000830152610d5d8185610cfb565b9050610d6c6020830184610d34565b9392505050565b60006060820190508181036000830152610d8d8186610cfb565b90508181036020830152610da18185610cfb565b9050610db06040830184610d34565b949350505050565b60008060408385031215610dcf57610dce6109e8565b5b6000610ddd85828601610a3b565b925050602083013567ffffffffffffffff811115610dfe57610dfd6109ed565b5b610e0a85828601610b68565b9150509250929050565b6000602082019050610e296000830184610d34565b92915050565b610e3881610a12565b82525050565b6000602082019050610e536000830184610e2f565b92915050565b7f4e487b7100000000000000000000000000000000000000000000000000000000600052602260045260246000fd5b60006002820490506001821680610ea057607f821691505b602082108103610eb357610eb2610e59565b5b50919050565b7f4e487b7100000000000000000000000000000000000000000000000000000000600052601160045260246000fd5b6000610ef382610b96565b9150610efe83610b96565b9250827fffffffffffffffffffffffffffffffffffffffffffffffffffffffffffffffff03821115610f3357610f32610eb9565b5b828201905092915050565b6000610f4982610b96565b9150610f5483610b96565b925082821015610f6757610f66610eb9565b5b82820390509291505056fea2646970667358221220b3ba9b108210b9294e92b01566363ae58fdca97e911c66dc8aa7541fe9e95a0b64736f6c634300080d0033",
  "immutableReferences": {},
  "source": "pragma solidity >=0.7.0 <0.9.0;\r\n\r\ncontract validatecert{\r\n\r\n    struct cert\r\n    {\r\n        string name;\r\n        string course;\r\n        uint duration;\r\n    }\r\n\r\n    struct college{\r\n        string name;\r\n        uint id;\r\n        address[] certs;\r\n    }\r\n\r\n\r\n    mapping(address=>cert) certificates;\r\n    mapping(address=>bool) college_add;\r\n    mapping(address=>college) colleges;\r\n    mapping(address=>bool) certificate_add;\r\n\r\n\r\n    address owner;\r\n    uint cid = 0;\r\n    uint gcertid = 0;\r\n\r\n    constructor() public {\r\n        owner=msg.sender;\r\n    }\r\n\r\n    event id(uint clgid);\r\n    event certificateid(address certificate_id);\r\n\r\n    function addCollege(address add,string memory name)  public  returns (uint){\r\n        if(msg.sender != owner)\r\n            return 0;\r\n        address[] memory ea;\r\n        colleges[add]  =  college(name,cid,ea);\r\n        cid = cid + 1;\r\n        college_add[add] = true;\r\n        emit id(cid-1);\r\n        return cid - 1;\r\n    }\r\n    \r\n    function checkcoll(address col) view public returns (string memory,uint){\r\n        return (colleges[col].name,colleges[col].id);\r\n    }\r\n\r\n    function addcert(address inst,string memory name,string memory course,uint duration,address ceid)   public {\r\n        if(college_add[inst] == false)\r\n            return;\r\n        certificates[ceid] = cert(name,course,duration);\r\n        colleges[inst].certs.push(ceid);\r\n        certificate_add[ceid] = true;\r\n        emit certificateid(ceid);\r\n    }\r\n\r\n    function viewcert(address certid) view public returns(string memory name,string memory course,uint dur){\r\n        string memory s = \"invalid\";\r\n        if(certificate_add[certid] != true)\r\n            return (s,s,0);\r\n        return (certificates[certid].name,certificates[certid].course,certificates[certid].duration);\r\n    }\r\n    \r\n}",
  "sourcePath": "C:\\Users\\mridu\\Desktop\\certificate\\contracts\\validatecert.sol",
  "compiler": {
    "name": "solc",
    "version": "0.8.13+commit.abaa5c0e.Emscripten.clang"
  },
  "schemaVersion": "3.4.7",
  "updatedAt": "2022-04-26T09:16:41.376Z",
  "networkType": "ethereum",
  "devdoc": {
    "kind": "dev",
    "methods": {},
    "version": 1
  },
  "userdoc": {
    "kind": "user",
    "methods": {},
    "version": 1
  }
}